{"abi":[{"type":"constructor","inputs":[{"name":"_trustedForwarder","type":"address","internalType":"address"}],"stateMutability":"nonpayable"},{"type":"function","name":"isTrustedForwarder","inputs":[{"name":"forwarder","type":"address","internalType":"address"}],"outputs":[{"name":"","type":"bool","internalType":"bool"}],"stateMutability":"view"},{"type":"function","name":"mockFunction","inputs":[],"outputs":[{"name":"","type":"string","internalType":"string"}],"stateMutability":"payable"},{"type":"function","name":"mockFunctionEmptyReturn","inputs":[],"outputs":[],"stateMutability":"payable"},{"type":"function","name":"mockFunctionNonPayable","inputs":[],"outputs":[{"name":"","type":"string","internalType":"string"}],"stateMutability":"nonpayable"},{"type":"function","name":"mockFunctionOutOfGas","inputs":[],"outputs":[],"stateMutability":"payable"},{"type":"function","name":"mockFunctionRevertsNoReason","inputs":[],"outputs":[],"stateMutability":"payable"},{"type":"function","name":"mockFunctionRevertsReason","inputs":[],"outputs":[],"stateMutability":"payable"},{"type":"function","name":"mockFunctionThrows","inputs":[],"outputs":[],"stateMutability":"payable"},{"type":"function","name":"mockFunctionWithArgs","inputs":[{"name":"a","type":"uint256","internalType":"uint256"},{"name":"b","type":"uint256","internalType":"uint256"}],"outputs":[{"name":"","type":"string","internalType":"string"}],"stateMutability":"payable"},{"type":"function","name":"mockFunctionWritesStorage","inputs":[{"name":"slot","type":"bytes32","internalType":"bytes32"},{"name":"value","type":"bytes32","internalType":"bytes32"}],"outputs":[{"name":"","type":"string","internalType":"string"}],"stateMutability":"nonpayable"},{"type":"function","name":"mockStaticFunction","inputs":[],"outputs":[{"name":"","type":"string","internalType":"string"}],"stateMutability":"pure"},{"type":"event","name":"MockFunctionCalled","inputs":[],"anonymous":false},{"type":"event","name":"MockFunctionCalledWithArgs","inputs":[{"name":"a","type":"uint256","indexed":false,"internalType":"uint256"},{"name":"b","type":"uint256","indexed":false,"internalType":"uint256"}],"anonymous":false}],"bytecode":{"object":"0x6080604052348015600f57600080fd5b506040516104cf3803806104cf833981016040819052602c916050565b600180546001600160a01b0319166001600160a01b0392909216919091179055607e565b600060208284031215606157600080fd5b81516001600160a01b0381168114607757600080fd5b9392505050565b6104428061008d6000396000f3fe60806040526004361061009c5760003560e01c8063425397a211610064578063425397a2146100ee578063572b6c051461012b578063a793ab471461016a578063c292d81c14610172578063c8fc76961461017a578063fdb27325146101a957600080fd5b80630c034968146100a15780630f63e42c146100ab5780632c81d638146100d65780633bcfaa14146100de5780633e6fec04146100e6575b600080fd5b6100a96101bc565b005b3480156100b757600080fd5b506100c0610208565b6040516100cd919061032f565b60405180910390f35b6100a9600080fd5b6100a9610255565b6100c0610208565b3480156100fa57600080fd5b506100c061010936600461037d565b90556040805180820190915260068152650c1e0c4c8ccd60d21b602082015290565b34801561013757600080fd5b5061015a61014636600461039f565b6001546001600160a01b0391821691161490565b60405190151581526020016100cd565b6100a961025f565b6100a96102a4565b34801561018657600080fd5b506040805180820190915260068152650c1e0c4c8ccd60d21b60208201526100c0565b6100c06101b736600461037d565b6102cf565b60405162461bcd60e51b815260206004820152601b60248201527f43616c6c52656365697665724d6f636b3a20726576657274696e670000000000604482015260640160405180910390fd5b6040516060907f52c66ed6ec9ca819cba26fe2b2650059270d8981b295af300187a964f54a8c2390600090a1506040805180820190915260068152650c1e0c4c8ccd60d21b602082015290565b61025d6103cf565b565b60005b600080546001810182559080527f290decd9548b62a8d60345a988386fc84ba6bc95484008f6362f93160ef3e5630181905561029d816103e5565b9050610262565b6040517f52c66ed6ec9ca819cba26fe2b2650059270d8981b295af300187a964f54a8c2390600090a1565b60408051838152602081018390526060917f2b42b3c9af4187c86225f201736204c7597312c830cb5c2537dff6ef24b946ae910160405180910390a1506040805180820190915260068152650c1e0c4c8ccd60d21b602082015292915050565b602081526000825180602084015260005b8181101561035d5760208186018101516040868401015201610340565b506000604082850101526040601f19601f83011684010191505092915050565b6000806040838503121561039057600080fd5b50508035926020909101359150565b6000602082840312156103b157600080fd5b81356001600160a01b03811681146103c857600080fd5b9392505050565b634e487b7160e01b600052600160045260246000fd5b60006001820161040557634e487b7160e01b600052601160045260246000fd5b506001019056fea26469706673582212206baf4ae99b9be783182201e7681e180ffa0c21031277e6a5d8e253e5cd1bd84664736f6c634300081b0033","linkReferences":{}},"methodIdentifiers":{"isTrustedForwarder(address)":"572b6c05","mockFunction()":"3e6fec04","mockFunctionEmptyReturn()":"c292d81c","mockFunctionNonPayable()":"0f63e42c","mockFunctionOutOfGas()":"a793ab47","mockFunctionRevertsNoReason()":"2c81d638","mockFunctionRevertsReason()":"0c034968","mockFunctionThrows()":"3bcfaa14","mockFunctionWithArgs(uint256,uint256)":"fdb27325","mockFunctionWritesStorage(bytes32,bytes32)":"425397a2","mockStaticFunction()":"c8fc7696"},"id":18}