{"abi":[{"type":"constructor","inputs":[{"name":"name","type":"string","internalType":"string"}],"stateMutability":"nonpayable"},{"type":"function","name":"eip712Domain","inputs":[],"outputs":[{"name":"fields","type":"bytes1","internalType":"bytes1"},{"name":"name","type":"string","internalType":"string"},{"name":"version","type":"string","internalType":"string"},{"name":"chainId","type":"uint256","internalType":"uint256"},{"name":"verifyingContract","type":"address","internalType":"address"},{"name":"salt","type":"bytes32","internalType":"bytes32"},{"name":"extensions","type":"uint256[]","internalType":"uint256[]"}],"stateMutability":"view"},{"type":"function","name":"execute","inputs":[{"name":"request","type":"tuple","internalType":"struct ERC2771Forwarder.ForwardRequestData","components":[{"name":"from","type":"address","internalType":"address"},{"name":"to","type":"address","internalType":"address"},{"name":"value","type":"uint256","internalType":"uint256"},{"name":"gas","type":"uint256","internalType":"uint256"},{"name":"deadline","type":"uint48","internalType":"uint48"},{"name":"data","type":"bytes","internalType":"bytes"},{"name":"signature","type":"bytes","internalType":"bytes"}]}],"outputs":[],"stateMutability":"payable"},{"type":"function","name":"executeBatch","inputs":[{"name":"requests","type":"tuple[]","internalType":"struct ERC2771Forwarder.ForwardRequestData[]","components":[{"name":"from","type":"address","internalType":"address"},{"name":"to","type":"address","internalType":"address"},{"name":"value","type":"uint256","internalType":"uint256"},{"name":"gas","type":"uint256","internalType":"uint256"},{"name":"deadline","type":"uint48","internalType":"uint48"},{"name":"data","type":"bytes","internalType":"bytes"},{"name":"signature","type":"bytes","internalType":"bytes"}]},{"name":"refundReceiver","type":"address","internalType":"address payable"}],"outputs":[],"stateMutability":"payable"},{"type":"function","name":"nonces","inputs":[{"name":"owner","type":"address","internalType":"address"}],"outputs":[{"name":"","type":"uint256","internalType":"uint256"}],"stateMutability":"view"},{"type":"function","name":"verify","inputs":[{"name":"request","type":"tuple","internalType":"struct ERC2771Forwarder.ForwardRequestData","components":[{"name":"from","type":"address","internalType":"address"},{"name":"to","type":"address","internalType":"address"},{"name":"value","type":"uint256","internalType":"uint256"},{"name":"gas","type":"uint256","internalType":"uint256"},{"name":"deadline","type":"uint48","internalType":"uint48"},{"name":"data","type":"bytes","internalType":"bytes"},{"name":"signature","type":"bytes","internalType":"bytes"}]}],"outputs":[{"name":"","type":"bool","internalType":"bool"}],"stateMutability":"view"},{"type":"event","name":"EIP712DomainChanged","inputs":[],"anonymous":false},{"type":"event","name":"ExecutedForwardRequest","inputs":[{"name":"signer","type":"address","indexed":true,"internalType":"address"},{"name":"nonce","type":"uint256","indexed":false,"internalType":"uint256"},{"name":"success","type":"bool","indexed":false,"internalType":"bool"}],"anonymous":false},{"type":"error","name":"ERC2771ForwarderExpiredRequest","inputs":[{"name":"deadline","type":"uint48","internalType":"uint48"}]},{"type":"error","name":"ERC2771ForwarderInvalidSigner","inputs":[{"name":"signer","type":"address","internalType":"address"},{"name":"from","type":"address","internalType":"address"}]},{"type":"error","name":"ERC2771ForwarderMismatchedValue","inputs":[{"name":"requestedValue","type":"uint256","internalType":"uint256"},{"name":"msgValue","type":"uint256","internalType":"uint256"}]},{"type":"error","name":"ERC2771UntrustfulTarget","inputs":[{"name":"target","type":"address","internalType":"address"},{"name":"forwarder","type":"address","internalType":"address"}]},{"type":"error","name":"FailedCall","inputs":[]},{"type":"error","name":"InsufficientBalance","inputs":[{"name":"balance","type":"uint256","internalType":"uint256"},{"name":"needed","type":"uint256","internalType":"uint256"}]},{"type":"error","name":"InvalidAccountNonce","inputs":[{"name":"account","type":"address","internalType":"address"},{"name":"currentNonce","type":"uint256","internalType":"uint256"}]},{"type":"error","name":"InvalidShortString","inputs":[]},{"type":"error","name":"StringTooLong","inputs":[{"name":"str","type":"string","internalType":"string"}]}],"bytecode":{"object":"0x6101606040523480156200001257600080fd5b5060405162001410380380620014108339810160408190526200003591620001d0565b6040805180820190915260018152603160f81b6020820152819081906200005e8260006200010f565b610120526200006f8160016200010f565b61014052815160208084019190912060e052815190820120610100524660a052620000fd60e05161010051604080517f8b73c3c69bb8fe3d512ecc4cf759cc79239f7b179b0ffacaa9a75d522b39400f60208201529081019290925260608201524660808201523060a082015260009060c00160405160208183030381529060405280519060200120905090565b60805250503060c052506200043f9050565b60006020835110156200012f57620001278362000148565b905062000142565b816200013c848262000319565b5060ff90505b92915050565b600080829050601f815111156200017f578260405163305a27a960e01b8152600401620001769190620003e5565b60405180910390fd5b80516200018c826200041a565b179392505050565b634e487b7160e01b600052604160045260246000fd5b60005b83811015620001c7578181015183820152602001620001ad565b50506000910152565b600060208284031215620001e357600080fd5b81516001600160401b0380821115620001fb57600080fd5b818401915084601f8301126200021057600080fd5b81518181111562000225576200022562000194565b604051601f8201601f19908116603f0116810190838211818310171562000250576200025062000194565b816040528281528760208487010111156200026a57600080fd5b6200027d836020830160208801620001aa565b979650505050505050565b600181811c908216806200029d57607f821691505b602082108103620002be57634e487b7160e01b600052602260045260246000fd5b50919050565b601f82111562000314576000816000526020600020601f850160051c81016020861015620002ef5750805b601f850160051c820191505b818110156200031057828155600101620002fb565b5050505b505050565b81516001600160401b0381111562000335576200033562000194565b6200034d8162000346845462000288565b84620002c4565b602080601f8311600181146200038557600084156200036c5750858301515b600019600386901b1c1916600185901b17855562000310565b600085815260208120601f198616915b82811015620003b65788860151825594840194600190910190840162000395565b5085821015620003d55787850151600019600388901b60f8161c191681555b5050505050600190811b01905550565b602081526000825180602084015262000406816040850160208701620001aa565b601f01601f19169190910160400192915050565b80516020808301519190811015620002be5760001960209190910360031b1b16919050565b60805160a05160c05160e051610100516101205161014051610f766200049a60003960006103b00152600061037e01526000610aaa01526000610a82015260006109dd01526000610a0701526000610a310152610f766000f3fe60806040526004361061004a5760003560e01c806319d8d38c1461004f5780637ecebe001461008457806384b0196e146100c8578063ccf96b4a146100f0578063df905caf14610105575b600080fd5b34801561005b57600080fd5b5061006f61006a366004610bf2565b610118565b60405190151581526020015b60405180910390f35b34801561009057600080fd5b506100ba61009f366004610c49565b6001600160a01b031660009081526002602052604090205490565b60405190815260200161007b565b3480156100d457600080fd5b506100dd61014a565b60405161007b9796959493929190610cac565b6101036100fe366004610d45565b610190565b005b610103610113366004610bf2565b610297565b600080600080610127856102f2565b509250925092508280156101385750815b80156101415750805b95945050505050565b60006060806000806000606061015e610377565b6101666103a9565b60408051600080825260208201909252600f60f81b9b939a50919850469750309650945092509050565b6001600160a01b03811615600080805b85811015610250578686828181106101ba576101ba610dcb565b90506020028101906101cc9190610de1565b6101da906040013584610e01565b9250600061020b8888848181106101f3576101f3610dcb565b90506020028101906102059190610de1565b866103d6565b9050806102475787878381811061022457610224610dcb565b90506020028101906102369190610de1565b610244906040013584610e01565b92505b506001016101a0565b5034821461027f576040516370647f7960e01b8152600481018390523460248201526044015b60405180910390fd5b801561028f5761028f84826105b9565b505050505050565b806040013534146102c757604080516370647f7960e01b8152908201356004820152346024820152604401610276565b6102d28160016103d6565b6102ef5760405163d6bda27560e01b815260040160405180910390fd5b50565b6000806000806000806103048761065c565b909250905061032161031c6040890160208a01610c49565b6107d1565b4261033260a08a0160808b01610e22565b65ffffffffffff161015838015610366575061035160208a018a610c49565b6001600160a01b0316836001600160a01b0316145b919750955093509150509193509193565b60606103a47f0000000000000000000000000000000000000000000000000000000000000000600061084e565b905090565b60606103a47f0000000000000000000000000000000000000000000000000000000000000000600161084e565b60008060008060006103e7876102f2565b935093509350935085156104ad57836104355761040a6040880160208901610c49565b60405163d2650cd160e01b81526001600160a01b039091166004820152306024820152604401610276565b8261046e5761044a60a0880160808901610e22565b604051634a777ac560e11b815265ffffffffffff9091166004820152602401610276565b816104ad57806104816020890189610c49565b604051636422d02b60e11b81526001600160a01b03928316600482015291166024820152604401610276565b8380156104b75750815b80156104c05750825b156105af576001600160a01b03811660009081526002602052604081208054600181019091559050606088013560006104ff60408b0160208c01610c49565b905060408a0135600061051560a08d018d610e4a565b61052260208f018f610c49565b60405160200161053493929190610e98565b6040516020818303038152906040529050600080600083516020850186888af19a505a9050610563818e6108fb565b604080518781528c151560208201526001600160a01b038916917f842fb24a83793558587a3dab2be7674da4a51d09c5542d6dd354e5d0ea70813c910160405180910390a25050505050505b5050505092915050565b804710156105e35760405163cf47918160e01b815247600482015260248101829052604401610276565b6000826001600160a01b03168260405160006040518083038185875af1925050503d8060008114610630576040519150601f19603f3d011682016040523d82523d6000602084013e610635565b606091505b50509050806106575760405163d6bda27560e01b815260040160405180910390fd5b505050565b60008080806107ab61067160c0870187610e4a565b8080601f0160208091040260200160405190810160405280939291908181526020018383808284376000920191909152506107a592507f7f96328b83274ebc7c1cf4f7a3abda602b51a78b7fa1d86a2ce353d75e587cac91506106d9905060208a018a610c49565b6106e960408b0160208c01610c49565b60408b013560608c013561070361009f60208f018f610c49565b8d60800160208101906107169190610e22565b8e8060a001906107269190610e4a565b604051610734929190610ebe565b6040805191829003822060208301999099526001600160a01b0397881690820152959094166060860152608085019290925260a084015260c083015265ffffffffffff1660e08201526101008101919091526101200160405160208183030381529060405280519060200120610917565b90610944565b50909250905060008160038111156107c5576107c5610ece565b14959194509092505050565b604051306024820152600090819060440160408051601f19818403018152919052602080820180516001600160e01b031663572b6c0560e01b17815282519293506000928392839290918391895afa92503d91506000519050828015610838575060208210155b80156108445750600081115b9695505050505050565b606060ff83146108685761086183610991565b90506108f5565b81805461087490610ee4565b80601f01602080910402602001604051908101604052809291908181526020018280546108a090610ee4565b80156108ed5780601f106108c2576101008083540402835291602001916108ed565b820191906000526020600020905b8154815290600101906020018083116108d057829003601f168201915b505050505090505b92915050565b61090a603f6060830135610f1e565b82101561091357fe5b5050565b60006108f56109246109d0565b8360405161190160f01b8152600281019290925260228201526042902090565b6000806000835160410361097e5760208401516040850151606086015160001a61097088828585610afb565b95509550955050505061098a565b50508151600091506002905b9250925092565b6060600061099e83610bca565b604080516020808252818301909252919250600091906020820181803683375050509182525060208101929092525090565b6000306001600160a01b037f000000000000000000000000000000000000000000000000000000000000000016148015610a2957507f000000000000000000000000000000000000000000000000000000000000000046145b15610a5357507f000000000000000000000000000000000000000000000000000000000000000090565b6103a4604080517f8b73c3c69bb8fe3d512ecc4cf759cc79239f7b179b0ffacaa9a75d522b39400f60208201527f0000000000000000000000000000000000000000000000000000000000000000918101919091527f000000000000000000000000000000000000000000000000000000000000000060608201524660808201523060a082015260009060c00160405160208183030381529060405280519060200120905090565b600080807f7fffffffffffffffffffffffffffffff5d576e7357a4501ddfe92f46681b20a0841115610b365750600091506003905082610bc0565b604080516000808252602082018084528a905260ff891692820192909252606081018790526080810186905260019060a0016020604051602081039080840390855afa158015610b8a573d6000803e3d6000fd5b5050604051601f1901519150506001600160a01b038116610bb657506000925060019150829050610bc0565b9250600091508190505b9450945094915050565b600060ff8216601f8111156108f557604051632cd44ac360e21b815260040160405180910390fd5b600060208284031215610c0457600080fd5b813567ffffffffffffffff811115610c1b57600080fd5b820160e08185031215610c2d57600080fd5b9392505050565b6001600160a01b03811681146102ef57600080fd5b600060208284031215610c5b57600080fd5b8135610c2d81610c34565b6000815180845260005b81811015610c8c57602081850181015186830182015201610c70565b506000602082860101526020601f19601f83011685010191505092915050565b60ff60f81b881681526000602060e06020840152610ccd60e084018a610c66565b8381036040850152610cdf818a610c66565b606085018990526001600160a01b038816608086015260a0850187905284810360c08601528551808252602080880193509091019060005b81811015610d3357835183529284019291840191600101610d17565b50909c9b505050505050505050505050565b600080600060408486031215610d5a57600080fd5b833567ffffffffffffffff80821115610d7257600080fd5b818601915086601f830112610d8657600080fd5b813581811115610d9557600080fd5b8760208260051b8501011115610daa57600080fd5b60209283019550935050840135610dc081610c34565b809150509250925092565b634e487b7160e01b600052603260045260246000fd5b6000823560de19833603018112610df757600080fd5b9190910192915050565b808201808211156108f557634e487b7160e01b600052601160045260246000fd5b600060208284031215610e3457600080fd5b813565ffffffffffff81168114610c2d57600080fd5b6000808335601e19843603018112610e6157600080fd5b83018035915067ffffffffffffffff821115610e7c57600080fd5b602001915036819003821315610e9157600080fd5b9250929050565b8284823760609190911b6bffffffffffffffffffffffff19169101908152601401919050565b8183823760009101908152919050565b634e487b7160e01b600052602160045260246000fd5b600181811c90821680610ef857607f821691505b602082108103610f1857634e487b7160e01b600052602260045260246000fd5b50919050565b600082610f3b57634e487b7160e01b600052601260045260246000fd5b50049056fea26469706673582212207e54d50c8d0edca3f3c3d9ad10259c1305c9a4cbed0536e2f5d1a1ad658c4e5564736f6c63430008160033","linkReferences":{}},"methodIdentifiers":{"eip712Domain()":"84b0196e","execute((address,address,uint256,uint256,uint48,bytes,bytes))":"df905caf","executeBatch((address,address,uint256,uint256,uint48,bytes,bytes)[],address)":"ccf96b4a","nonces(address)":"7ecebe00","verify((address,address,uint256,uint256,uint48,bytes,bytes))":"19d8d38c"},"id":18}